{
  "abi": [
    {
      "inputs": [
        {
          "internalType": "address",
          "name": "_mockWorldID",
          "type": "address"
        },
        {
          "internalType": "address",
          "name": "_mockBridgedWorldID",
          "type": "address"
        }
      ],
      "stateMutability": "nonpayable",
      "type": "constructor"
    },
    {
      "inputs": [],
      "name": "InvalidRoot",
      "type": "error"
    },
    {
      "anonymous": false,
      "inputs": [
        {
          "indexed": true,
          "internalType": "address",
          "name": "previousOwner",
          "type": "address"
        },
        {
          "indexed": true,
          "internalType": "address",
          "name": "newOwner",
          "type": "address"
        }
      ],
      "name": "OwnershipTransferred",
      "type": "event"
    },
    {
      "inputs": [],
      "name": "mockBridgedWorldID",
      "outputs": [
        {
          "internalType": "contract MockBridgedWorldID",
          "name": "",
          "type": "address"
        }
      ],
      "stateMutability": "view",
      "type": "function"
    },
    {
      "inputs": [],
      "name": "owner",
      "outputs": [
        {
          "internalType": "address",
          "name": "",
          "type": "address"
        }
      ],
      "stateMutability": "view",
      "type": "function"
    },
    {
      "inputs": [],
      "name": "propagateRoot",
      "outputs": [],
      "stateMutability": "nonpayable",
      "type": "function"
    },
    {
      "inputs": [],
      "name": "renounceOwnership",
      "outputs": [],
      "stateMutability": "nonpayable",
      "type": "function"
    },
    {
      "inputs": [
        {
          "internalType": "address",
          "name": "newOwner",
          "type": "address"
        }
      ],
      "name": "transferOwnership",
      "outputs": [],
      "stateMutability": "nonpayable",
      "type": "function"
    },
    {
      "inputs": [],
      "name": "worldID",
      "outputs": [
        {
          "internalType": "contract IWorldIDIdentityManager",
          "name": "",
          "type": "address"
        }
      ],
      "stateMutability": "view",
      "type": "function"
    }
  ],
  "bytecode": {
    "object": "0x608060405234801561001057600080fd5b5060405161058938038061058983398101604081905261002f916100d5565b61003833610069565b600180546001600160a01b039384166001600160a01b03199182161790915560028054929093169116179055610108565b600080546001600160a01b038381166001600160a01b0319831681178455604051919092169283917f8be0079c531659141344cd1fd0a4f28419497f9722a3daafe3b4186f6b6457e09190a35050565b80516001600160a01b03811681146100d057600080fd5b919050565b600080604083850312156100e857600080fd5b6100f1836100b9565b91506100ff602084016100b9565b90509250929050565b610472806101176000396000f3fe608060405234801561001057600080fd5b50600436106100725760003560e01c80638da5cb5b116100505780638da5cb5b146100d2578063d9605de4146100f0578063f2fde38b1461011057600080fd5b80631213c3ef14610077578063380db829146100c0578063715018a6146100ca575b600080fd5b6001546100979073ffffffffffffffffffffffffffffffffffffffff1681565b60405173ffffffffffffffffffffffffffffffffffffffff909116815260200160405180910390f35b6100c8610123565b005b6100c86101c5565b60005473ffffffffffffffffffffffffffffffffffffffff16610097565b6002546100979073ffffffffffffffffffffffffffffffffffffffff1681565b6100c861011e36600461040f565b6101d9565b600154604080517fd7b0fef1000000000000000000000000000000000000000000000000000000008152905160009273ffffffffffffffffffffffffffffffffffffffff169163d7b0fef19160048083019260209291908290030181865afa158015610193573d6000803e3d6000fd5b505050506040513d601f19601f820116820180604052508101906101b7919061044c565b90506101c281610292565b50565b6101cd610319565b6101d7600061039a565b565b6101e1610319565b73ffffffffffffffffffffffffffffffffffffffff8116610289576040517f08c379a000000000000000000000000000000000000000000000000000000000815260206004820152602660248201527f4f776e61626c653a206e6577206f776e657220697320746865207a65726f206160448201527f646472657373000000000000000000000000000000000000000000000000000060648201526084015b60405180910390fd5b6101c28161039a565b6002546040517ffbde929b0000000000000000000000000000000000000000000000000000000081526004810183905273ffffffffffffffffffffffffffffffffffffffff9091169063fbde929b90602401600060405180830381600087803b1580156102fe57600080fd5b505af1158015610312573d6000803e3d6000fd5b5050505050565b60005473ffffffffffffffffffffffffffffffffffffffff1633146101d7576040517f08c379a000000000000000000000000000000000000000000000000000000000815260206004820181905260248201527f4f776e61626c653a2063616c6c6572206973206e6f7420746865206f776e65726044820152606401610280565b6000805473ffffffffffffffffffffffffffffffffffffffff8381167fffffffffffffffffffffffff0000000000000000000000000000000000000000831681178455604051919092169283917f8be0079c531659141344cd1fd0a4f28419497f9722a3daafe3b4186f6b6457e09190a35050565b60006020828403121561042157600080fd5b813573ffffffffffffffffffffffffffffffffffffffff8116811461044557600080fd5b9392505050565b60006020828403121561045e57600080fd5b505191905056fea164736f6c634300080f000a",
    "linkReferences": {}
  },
  "methodIdentifiers": {
    "mockBridgedWorldID()": "d9605de4",
    "owner()": "8da5cb5b",
    "propagateRoot()": "380db829",
    "renounceOwnership()": "715018a6",
    "transferOwnership(address)": "f2fde38b",
    "worldID()": "1213c3ef"
  },
  "id": 22
}