{
  "abi": [
    {
      "inputs": [
        {
          "internalType": "uint256",
          "name": "initRoot",
          "type": "uint256"
        }
      ],
      "stateMutability": "nonpayable",
      "type": "constructor"
    },
    {
      "anonymous": false,
      "inputs": [
        {
          "indexed": true,
          "internalType": "uint256",
          "name": "preRoot",
          "type": "uint256"
        },
        {
          "indexed": true,
          "internalType": "enum MockWorldIDIdentityManager.TreeChange",
          "name": "kind",
          "type": "uint8"
        },
        {
          "indexed": true,
          "internalType": "uint256",
          "name": "postRoot",
          "type": "uint256"
        }
      ],
      "name": "TreeChanged",
      "type": "event"
    },
    {
      "inputs": [
        {
          "internalType": "uint256[8]",
          "name": "deletionProof",
          "type": "uint256[8]"
        },
        {
          "internalType": "bytes",
          "name": "packedDeletionIndices",
          "type": "bytes"
        },
        {
          "internalType": "uint256",
          "name": "preRoot",
          "type": "uint256"
        },
        {
          "internalType": "uint256",
          "name": "postRoot",
          "type": "uint256"
        }
      ],
      "name": "deleteIdentities",
      "outputs": [],
      "stateMutability": "nonpayable",
      "type": "function"
    },
    {
      "inputs": [
        {
          "internalType": "uint256",
          "name": "postRoot",
          "type": "uint256"
        }
      ],
      "name": "insertRoot",
      "outputs": [],
      "stateMutability": "nonpayable",
      "type": "function"
    },
    {
      "inputs": [],
      "name": "latestRoot",
      "outputs": [
        {
          "internalType": "uint256",
          "name": "",
          "type": "uint256"
        }
      ],
      "stateMutability": "view",
      "type": "function"
    },
    {
      "inputs": [
        {
          "internalType": "uint256[8]",
          "name": "insertionProof",
          "type": "uint256[8]"
        },
        {
          "internalType": "uint256",
          "name": "preRoot",
          "type": "uint256"
        },
        {
          "internalType": "uint32",
          "name": "startIndex",
          "type": "uint32"
        },
        {
          "internalType": "uint256[]",
          "name": "identityCommitments",
          "type": "uint256[]"
        },
        {
          "internalType": "uint256",
          "name": "postRoot",
          "type": "uint256"
        }
      ],
      "name": "registerIdentities",
      "outputs": [],
      "stateMutability": "nonpayable",
      "type": "function"
    }
  ],
  "bytecode": {
    "object": "0x608060405234801561001057600080fd5b5060405161033338038061033383398101604081905261002f91610037565b600055610050565b60006020828403121561004957600080fd5b5051919050565b6102d48061005f6000396000f3fe608060405234801561001057600080fd5b506004361061004c5760003560e01c80632217b21114610051578063c46d227a14610066578063d7b0fef114610079578063ea10fbbe1461008e575b600080fd5b61006461005f36600461015d565b6100a1565b005b610064610074366004610217565b6100d7565b60005460405190815260200160405180910390f35b61006461009c366004610230565b610110565b80600060405187907f25f6d5cc356ee0b49cf708c13c68197947f5740a878a298765e4b18e4afdaf0490600090a4505050505050565b6000805482825590829060405183907f25f6d5cc356ee0b49cf708c13c68197947f5740a878a298765e4b18e4afdaf0490600090a45050565b80600160405184907f25f6d5cc356ee0b49cf708c13c68197947f5740a878a298765e4b18e4afdaf0490600090a45050505050565b80610100810183101561015757600080fd5b92915050565b600080600080600080610180878903121561017757600080fd5b6101818888610145565b9550610100870135945061012087013563ffffffff811681146101a357600080fd5b935061014087013567ffffffffffffffff808211156101c157600080fd5b818901915089601f8301126101d557600080fd5b8135818111156101e457600080fd5b8a60208260051b85010111156101f957600080fd5b60208301955080945050505061016087013590509295509295509295565b60006020828403121561022957600080fd5b5035919050565b6000806000806000610160868803121561024957600080fd5b6102538787610145565b945061010086013567ffffffffffffffff8082111561027157600080fd5b818801915088601f83011261028557600080fd5b81358181111561029457600080fd5b8960208285010111156102a657600080fd5b9699602092909201985095966101208101359650610140013594509250505056fea164736f6c634300080f000a",
    "linkReferences": {}
  },
  "methodIdentifiers": {
    "deleteIdentities(uint256[8],bytes,uint256,uint256)": "ea10fbbe",
    "insertRoot(uint256)": "c46d227a",
    "latestRoot()": "d7b0fef1",
    "registerIdentities(uint256[8],uint256,uint32,uint256[],uint256)": "2217b211"
  },
  "id": 36
}