{
  "abi": [
    {
      "inputs": [
        {
          "internalType": "uint256",
          "name": "initRoot",
          "type": "uint256"
        }
      ],
      "stateMutability": "nonpayable",
      "type": "constructor"
    },
    {
      "anonymous": false,
      "inputs": [
        {
          "indexed": true,
          "internalType": "uint256",
          "name": "preRoot",
          "type": "uint256"
        },
        {
          "indexed": true,
          "internalType": "enum WorldIDIdentityManagerMock.TreeChange",
          "name": "kind",
          "type": "uint8"
        },
        {
          "indexed": true,
          "internalType": "uint256",
          "name": "postRoot",
          "type": "uint256"
        }
      ],
      "name": "TreeChanged",
      "type": "event"
    },
    {
      "inputs": [
        {
          "internalType": "uint256",
          "name": "postRoot",
          "type": "uint256"
        }
      ],
      "name": "insertRoot",
      "outputs": [],
      "stateMutability": "nonpayable",
      "type": "function"
    },
    {
      "inputs": [],
      "name": "latestRoot",
      "outputs": [
        {
          "internalType": "uint256",
          "name": "",
          "type": "uint256"
        }
      ],
      "stateMutability": "view",
      "type": "function"
    }
  ],
  "bytecode": {
    "object": "0x608060405234801561001057600080fd5b5060405161011938038061011983398101604081905261002f91610037565b600055610050565b60006020828403121561004957600080fd5b5051919050565b60bb8061005e6000396000f3fe6080604052348015600f57600080fd5b506004361060325760003560e01c8063c46d227a146037578063d7b0fef1146048575b600080fd5b604660423660046096565b605d565b005b60005460405190815260200160405180910390f35b6000805482825590829060405183907f25f6d5cc356ee0b49cf708c13c68197947f5740a878a298765e4b18e4afdaf0490600090a45050565b60006020828403121560a757600080fd5b503591905056fea164736f6c634300080f000a",
    "linkReferences": {}
  },
  "methodIdentifiers": {
    "insertRoot(uint256)": "c46d227a",
    "latestRoot()": "d7b0fef1"
  },
  "id": 36
}