{
  "abi": [
    {
      "inputs": [
        {
          "internalType": "uint256",
          "name": "newRoot",
          "type": "uint256"
        }
      ],
      "stateMutability": "nonpayable",
      "type": "constructor"
    },
    {
      "inputs": [],
      "name": "latestRoot",
      "outputs": [
        {
          "internalType": "uint256",
          "name": "",
          "type": "uint256"
        }
      ],
      "stateMutability": "view",
      "type": "function"
    }
  ],
  "bytecode": {
    "object": "0x608060405234801561001057600080fd5b506040516100ad3803806100ad83398101604081905261002f91610037565b600055610050565b60006020828403121561004957600080fd5b5051919050565b604f8061005e6000396000f3fe6080604052348015600f57600080fd5b506004361060285760003560e01c8063d7b0fef114602d575b600080fd5b60005460405190815260200160405180910390f3fea164736f6c634300080f000a",
    "linkReferences": {}
  },
  "deployedBytecode": {
    "object": "0x6080604052348015600f57600080fd5b506004361060285760003560e01c8063d7b0fef114602d575b600080fd5b60005460405190815260200160405180910390f3fea164736f6c634300080f000a",
    "linkReferences": {}
  },
  "methodIdentifiers": {
    "latestRoot()": "d7b0fef1"
  },
  "id": 115
}